S00E0000752D626F6F742E73726563C0
S31501000040160000EA14F09FE514F09FE514F09FE511
S3150100005014F09FE514F09FE514F09FE514F09FE579
S315010000600002000160020001C0020001200300013C
S3150100007080030001E00300012004000178563412D8
S31501000080400000014039030040390300EC740700C9
S3150100009098A50300DEC0AD0BDEC0AD0BDEC0AD0B17
S315010000A0210500EB00000FE11F00C0E3D30080E350
S315010000B000F029E1100F11EE020AC0E3100F01EE64
S315010000C098039FE5100F0CEE360000EB460000EB9F
S315010000D0CA0500EB0040A0E10150A0E10260A0E1E9
S315010000E0A8004FE2060050E10090A0032200000A9A
S315010000F00610A0E174301FE5032080E00006B0E899
S315010001000006A1E8020050E1FBFFFF3A94001FE55B
S31501000110009046E06CA09FE500A08AE05C209FE588
S31501000120002082E058309FE5003083E0000092E530
S31501000130090080E0041092E5FF7001E2170057E321
S315010001400700000A020057E30000000A060000EA61
S315010001502112A0E101108AE0041091E5091081E065
S31501000160010000EA001090E5091081E0001080E529
S31501000170082082E2030052E1EBFFFF3A1EFF2FE166
S315010001804039030088A4030088A40300150F07EE75
S315010001909A0F07EE950F07EEC0029FE5100F0CEEC2
S315010001A01EFF2FE11EFF2FE10000A0E3170F08EE4F
S315010001B0150F07EED50F07EE9A0F07EE950F07EE0F
S315010001C0100F11EE020AC0E30700C0E3020080E34C
S315010001D0020B80E3010A80E3100F01EE300F1FEEE0
S315010001E0020680E3300F0FEE0EF0A0E1300100EAC7
S315010001F000F020E300F020E300F020E300F020E32C
S315010002006CD11FE500E08DE500E04FE104E08DE5EE
S3150100021013D0A0E30DF069E10FE0A0E10EF0B0E12B
S3150100022048D04DE2FF1F8DE894211FE50C0092E8AE
S3150100023048008DE234508DE20E10A0E10F0085E8F2
S315010002400D00A0E1C40600FA00F020E300F020E36F
S3150100025000F020E300F020E300F020E300F020E3CB
S3150100026004D04DE200008DE5D4011FE500E080E5F4
S3150100027000004FE104E080E500009DE504D08DE239
S3150100028048D04DE2FF1F8DE8F4211FE50C0092E8EE
S3150100029048008DE234508DE20E10A0E10F0085E892
S315010002A00D00A0E1B20600FA00F020E300F020E321
S315010002B000F020E300F020E300F020E300F020E36B
S315010002C02CD21FE500E08DE500E04FE104E08DE56D
S315010002D013D0A0E30DF069E10FE0A0E10EF0B0E16B
S315010002E048D04DE2FF1F8DE854221FE50C0092E82D
S315010002F048008DE234508DE20E10A0E10F0085E832
S315010003000D00A0E1A00600FA00F020E300F020E3D2
S3150100031000F020E300F020E300F020E300F020E30A
S315010003208CD21FE500E08DE500E04FE104E08DE5AC
S3150100033013D0A0E30DF069E10FE0A0E10EF0B0E10A
S3150100034048D04DE2FF1F8DE8B4221FE50C0092E86C
S3150100035048008DE234508DE20E10A0E10F0085E8D1
S315010003600D00A0E18E0600FA00F020E300F020E384
S3150100037000F020E300F020E300F020E300F020E3AA
S31501000380ECD21FE500E08DE500E04FE104E08DE5EC
S3150100039013D0A0E30DF069E10FE0A0E10EF0B0E1AA
S315010003A048D04DE2FF1F8DE814231FE50C0092E8AB
S315010003B048008DE234508DE20E10A0E10F0085E871
S315010003C00D00A0E17C0600FA00F020E300F020E336
S315010003D000F020E300F020E300F020E300F020E34A
S315010003E054D31FE548D04DE2FF1F8DE83C508DE206
S315010003F0006045E900E085E500604FE1046085E5C0
S31501000400080085E50D00A0E16D0200FAFF7FDDE839
S315010004100000A0E13CE09DE548D08DE204F05EE2FB
S3150100042090D31FE548D04DE2FF1F8DE83C508DE289
S31501000430006045E900E085E500604FE1046085E57F
S31501000440080085E50D00A0E1610600FAFF7FDDE801
S315010004500000A0E13CE09DE548D08DE204F05EE2BB
S315010004604000000100F020E300F020E300F020E36B
S3150100047000F020E300F020E300F020E300F020E3A9
S315010004802DE9F04630EE306F00210D464C00631821
S3150100049026FA03F303F00703023B022B44D840EE8E
S315010004A0104F30EE107FC7F3C90307F0070E03F1B3
S315010004B001090EF1040EC7F34E374FF0FF32CC4659
S315010004C05FEA5C0C02F10102FAD119EA030F18BFC7
S315010004D001320128C2F1200211D103FA02FABC4607
S315010004E04AEA040A0CFA0EF949EA0A0907EE569F86
S315010004F01CF1FF3CF6D213F1FF33EED212E00228D3
S3150100050012D103FA02FABC464AEA040A0CFA0EF9B7
S3150100051049EA0A0907EE5E9F1CF1FF3CF6D213F188
S31501000520FF33EED207EE9A5F01310729AED1BDE85E
S31501000530F086002307EE153F07EED53F07EE9A3FFB
S3150100054007EE953F704770477047704708B5022020
S31501000550FFF796FFBDE80840FFF7F7BF704708B5FC
S315010005600120FFF78DFFBDE80840FFF7F7BF08B58B
S31501000570FFF7E9FFFFF7F3FF002308EE173F08EE49
S31501000580163F08EE153F07EE9A3F07EE953F08BD69
S31501000590704730EE103F012203F0070304339A40FF
S315010005A0534203408B4203D207EE3E3F1344F9E721
S315010005B0002307EE9A3FFFF7EBBF08B5FFF7E9FF08
S315010005C0002308EE173F08EE163F08EE153F07EE2B
S315010005D09A3F07EE953F08BD0144FFF7DABF704722
S315010005E02DE9F04207460E4630EE103F012503F095
S315010005F0070304339D4005F1FF3919EA000F09D0BD
S315010006007C1E124812493A4609F07AF863196C427F
S315010006101C4000E0044619EA060F07D00D48324691
S315010006200B4909F06DF86B42334000E033469C42BA
S3150100063003D207EE364F2C44F9E7002307EE9A3F23
S3150100064038463146BDE8F042FFF7C9BFE459020119
S31501000650C4580201175A0201704708B501F0FFFAA2
S3150100066001F01EFCFFF765FF01F065FCFFF76CFF6B
S31501000670FFF775FFFFF7F0FF002008BD0138FDD138
S31501000680704710B5012494400268013C8B408C40B0
S3150100069022EA04042343036010BD30B5002401346B
S315010006A0156805408D4203D09C42F8D1002030BD2B
S315010006B0012030BD0CD09FE507D0CDE300502DE9D8
S315010006C0010000FA0090BDE880FEFFFF054A1368AD
S315010006D06FEA13336FEA03331360034B01221A6087
S315010006E0704700BF54C0FEFF00FCFEFF054B4FF0F4
S315010006F0FF321A605A609A6842F0030200209A603B
S31501000700704700BF0000D0FF46F2A81358430B4BB9
S3150100071010B5A0FB03018B0909494A68002B0BDDC3
S315010007204868824235BFC0F101049B1A12191B1891
S3150100073038BF9B180246F1E710BD00BFD34D6210CA
S315010007400000D0FF124B10B55A68D308114AA3FB1B
S315010007500223180AD8F8303083423BBFD8F830401C
S31501000760D8F82020D8F8303002F527332DBFD8F835
S31501000770202003F216331B189B182CBF1B1A1B1BB8
S31501000780C8F82030C8F83000D8F8200010BD00BFE6
S315010007900000D0FF89B5F81408B50146FFF7D2FF6E
S315010007A0401A08BD064B5A68D308064AA3FB022322
S315010007B000221B0AC8F83030C8F82020704700BF55
S315010007C00000D0FF89B5F8140E4B5968D8F83020CF
S315010007D08A4239BFD8F83000D8F82020D8F830201E
S315010007E0D8F820003BBF521802F1FF321218121A34
S315010007F028BF521AC8F82020C8F83010D8F82000AF
S31501000800704700BF0000D0FF10B50446FFF7DCFFBC
S31501000810001B10BD034A5268C8F830200022C8F8F0
S31501000820202070470000D0FF08B5FFF78BFF00219D
S3150100083008BD4FF47A707047044B5A6942F0400282
S315010008405A615A6922F040025A6170470050D0FF3E
S31501000850024B5869C0F38010704700BF0050D0FFAB
S31501000860024A536843F002035360FEE70050D0FF8B
S31501000870014B00225A6170470050D0FF08B500F0C5
S3150100088031F900B9FEE7034B0022DA61024B192266
S315010008901A6008BD0050D0FF000080FF014B002206
S315010008A01A6170470050D0FF024A536923F48073DE
S315010008B0536170470050D0FF024A536923F0400349
S315010008C0536170470050D0FF024B4FF0FF325A611F
S315010008D0704700BF0050D0FF024B4FF0FF32DA6184
S315010008E0704700BF0050D0FF024B6FF040025A61C3
S315010008F0704700BF0050D0FF014A024B5A61704752
S31501000900BFFFFFDF0050D0FF044B5A6910B142F020
S31501000910010201E022F001025A6170470050D0FF46
S31501000920044B5A6910B142F0020201E022F00202C0
S315010009305A6170470050D0FF064B1A6842F0100208
S315010009401A601A6810B142F0010201E022F00102B8
S315010009501A6070473C50C2FF1B4B10B51C686207FA
S315010009600CD51969194808F0CBFE194A19491368BB
S31501000970096819481944116007F052F814F008047F
S3150100098016D0164808F0A8FE114B1548196808F04C
S31501000990B7FE144B1968144808F0B2FE134B1968D8
S315010009A0134808F0ADFE134B1968134808F0A8FE6A
S315010009B0124A136843F01003136024B10020FFF7B5
S315010009C0BBFF00F0F9FF10BD3850C2FF495A0201C2
S315010009D0803903014050C2FF675A0201755A02016C
S315010009E0945A02014850C2FFA45A02014C50C2FF58
S315010009F0B45A02015050C2FFC65A02013C50C2FF0E
S31501000A000E4B1B680E4A03F01F0012681AB1202A0A
S31501000A1028BF0F2200E00F22C3F38221094B1B6876
S31501000A20282B03D0182B08BF102300E020230144F4
S31501000A3001200A44DB089040584370472C50C2FFFE
S31501000A409080D0FF3050C2FF10B5FFF7D9FF0146A5
S31501000A50002044460DF0B0FBA063002010BD00BF8E
S31501000A60024B1868C0F38000704700BF506870FFE2
S31501000A70024B186800F00700704700BF006070FF66
S31501000A80044A5368800123F0C003C0B21843506082
S31501000A90704700BF006070FF094BDA680AB1012296
S31501000AA0DA604FF080729860D96821B1044B012257
S31501000AB00020DA607047013AF6D14FF0FF307047F7
S31501000AC0006070FF08B5FFF7CBFF08B9002008BD2D
S31501000AD0FFF7C6FF0028F9D0FFF7CAFF031F5842E8
S31501000AE0584108BD4FF0807208B5FFF7B9FF18B934
S31501000AF0013AFAD1104608BDFFF7B2FF0028F7D038
S31501000B00012008BD2D4908B508684B68C0F3C4002B
S31501000B10020700F00B004CBF43F4007323F400738B
S31501000B2008284B6001D100200BE0092801D10220E1
S31501000B3007E00A2801D1032003E00028F3D00128A9
S31501000B4002D1FFF79DFF01E00228F0D04B684FF07C
S31501000B50807223F002034B604B6843F001034B6044
S31501000B604B6843F004034B60FFF782FF012801D075
S31501000B70013AF9D1FFF77CFF012819D14B684FF0F3
S31501000B80807223F004034B60FFF772FF022801D045
S31501000B90013AF9D1FFF76CFF02280CD1084B40F658
S31501000BA0FF7200201A604B6843F480734B6008BDE6
S31501000BB04FF0FF3008BD6FF0010008BD006070FF07
S31501000BC04C6870FF0A46014922F056BC0000B9FF85
S31501000BD00B494FF080720B6813F0030306D0032B09
S31501000BE007D0013AF7D16FF0030070476FF00200AA
S31501000BF07047044A0020536823F48073536070479A
S31501000C00506870FF006070FF08B50420FFF744FFCD
S31501000C10024670B94FF08071FFF72AFF03280AD008
S31501000C20FFF726FF042806D00139F5D16FF005023A
S31501000C3001E06FF00402104608BD08B54FF4A0406C
S31501000C40FFF72AFF024650B94FF08071FFF710FFF8
S31501000C50042807D00139F9D16FF0070207E06FF0D8
S31501000C60060204E003494B6823F001034B6010467A
S31501000C7008BD00BF006070FF38B505460C460F4A37
S31501000C8000231360A2F56222A2F6A8721360FFF791
S31501000C9023FE0B4B01221A60FFF734FF68B9284681
S31501000CA02146FFF78FFFFFF793FF30B9FFF7ACFF40
S31501000CB018B9BDE83840FFF7C0BF38BD2880D0FF5E
S31501000CC0000080FF084A4FF0FF33136004321360BF
S31501000CD00432136004321360043213600432136069
S31501000CE0043213605360704780D1FEFF084A4FF00B
S31501000CF0FF3313600432136004321360043213604D
S31501000D000432136004321360043213605360704777
S31501000D1080D2FEFF4309012200F01F009B008240A2
S31501000D20A3F59733A3F5807319680A431A607047D0
S31501000D301F2810B510D900F0FC0300F00300A3F53D
S31501000D409433FF22C0001C688240814024EA0202DB
S31501000D501A601A681143196010BD030900F00F00EB
S31501000D60032201294FEA83034FEA4000A3F5923398
S31501000D7002FA00F210B51C6824EA02021A6001BFE9
S31501000D800222196882400A4308BF1A6010BD43094E
S31501000D90012200F01F009B008240A3F597331968DA
S31501000DA00A431A6070474309012200F01F009B00A5
S31501000DB08240A3F59633A3F5C07319680A431A60F6
S31501000DC0704700BF38B5084DAC69D32C0AD8074B1C
S31501000DD003EBC40253F8343050689847E0B2FFF78A
S31501000DE0E2FF2C6138BD00BF00C1FEFF68080301A8
S31501000DF010B50A4C236823F001032360FFF762FF55
S31501000E00FFF774FF064A08235360236843F0010382
S31501000E10236001230020136010BD00BF00D0FEFF38
S31501000E2000C1FEFF38B50446084D45F8301005EB04
S31501000E30C00519466A60FFF790FF20460121FFF7BA
S31501000E4077FF2046FFF766FF002038BD68080301DB
S31501000E50FFF79DBF40001F22C0F30073013A83EAEA
S31501000E60D0734FEA430343EA4000F5D1C0F3007360
S31501000E7083EAD073184370472DE9F34E4FF0000A09
S31501000E8007460E46154699469B46BA451CDA58460C
S31501000E90FFF7E0FFA842834603D9294622F06AF903
S31501000EA08B46214C0AF1010A0BEA0404002CBEBF51
S31501000EB004F1FF3464F003040134C4EB0B0444F879
S31501000EC006B017F071FFE0E74FF0000ABA4526DADF
S31501000ED04846FFF7BFFFA842814603D9294622F0BB
S31501000EE049F98946104C09EA0404002CBEBF04F1F5
S31501000EF0FF3464F003040134C4EB0904A219A359B5
S31501000F004B4507D00093514608484B4608F0F8FB7D
S31501000F10002005E017F048FF0AF1010AD6E7012093
S31501000F2002B0BDE8F08E00BF03000080D75A02016F
S31501000F30012870B50E46154605D00C4C0C4B0228FF
S31501000F4018BF1C4600E00B4C0B4808F0C5FB2046B9
S31501000F5031462A46094BFFF78FFF044608B1084878
S31501000F6000E0084808F0B8FB204670BD00CA9A3B6D
S31501000F7040420F00809698001E5B0201EFBEADDE77
S31501000F80465B02014CD202018A4B2DE9F04E044622
S31501000F9086B00D461A6822F480621A60864A4FF4BA
S31501000FA03D7111600193029205B99D63019A002377
S31501000FB0DFF83C92DFF83CB213608DB90B21C9F81A
S31501000FC00010DBF80010C907FBD47C4F7C4939605F
S31501000FD07C4EDFF824A2316055B9CAF8001007E04B
S31501000FE00921C9F80010DBF80010CA07FBD4ECE7A9
S31501000FF0754815210160754900230B603B6833680C
S31501001000DAF8003023683B60E36A336003900491A9
S315010010100DB9606D0865FFF7C5FB0020FFF7BCFB46
S31501001020636801466A480360A3680430036094302C
S3150100103001230360E368903803609430042303605E
S31501001040A36988380360236B2C300360636B04301B
S315010010500360236938380360A36B3C30036063691E
S3150100106038380360E36B3C300360236C0430036063
S31501001070636C436008460591FFF78EFB05990628C8
S31501001080F8D9216841F002013960E16A41F00201B3
S31501001090316025B9616D41F00201CAF80010E069BD
S315010010A04C490860206A04310860606A04310860AE
S315010010B0A06C38310860E06C474B48600021186825
S315010010C000F4E070B0F5E07F01D00021F7E70131CF
S315010010D00929F4D9A5B9A16DC1F30801A0F53F10FD
S315010010E0F8380160E16DC1F3080104300160216E39
S315010010F0C1F3080104300160616EC1F3080141606A
S315010011003B6843F080713960306840F0807131602E
S3150100111035B9616D41F0807141F00201CAF80010E4
S3150100112023F08071396020F0807030601DB100219C
S31501001130C9F8001062E0616D41F00201274ECAF85C
S315010011400010A56D30682649014024480029F9D1CF
S3150100115005600568224929400029FAD1E56D214E2D
S3150100116030681F4901401F480029F9D1056005680B
S315010011701B4929400029FAD1256E1B4E30681849B2
S31501001180014019480029F9D105600568144929402B
S315010011900029FAD1656E154E306811490140134890
S315010011A00029F9D1056005680D4929400029FAD1C0
S315010011B0BDE700BFA040D0FF6040D0FF4040D0FF58
S315010011C00D0001008040D0FFAC40D0FF7040D0FF41
S315010011D04840D0FF6440D0FF0840D0FFC840D0FF50
S315010011E000FE1F00CC40D0FFD040D0FFD440D0FF3E
S315010011F00440D0FF1440D0FFC040D0FFDBF80020F0
S31501001200D307FBD412490A6842F001020A60DBF8EF
S31501001210000010F00100FAD1236D039A1360A36A4E
S31501001220049A1360029A4FF0FF331360019A136018
S31501001230084A1360084B38221A60A2F53F12283A71
S31501001240136843F00103136006B0BDE8F08E00BFDA
S315010012500040D0FFD840D0FF0840D0FF0B4B10B55F
S315010012601C68C4F305410A480131C4F3CC0421F0DA
S3150100127053FE084B196804FB0000013121F04CFEB6
S31501001280054B1968013121F047FE10BD4040D0FFE2
S3150100129040787D01E040D0FF4840D0FF0D4A10B5AF
S315010012A01368C3F381530C48022B146828BF00202E
S315010012B0C4F30541C4F3CC04013121F02DFE074BE3
S315010012C0196804FB0000C1F30801013121F024FE75
S315010012D010BD00BFC040D0FF40787D01C840D0FF9F
S315010012E01A4B10B51B689B0712D4194B1C68C4F323
S315010012F0054118480131C4F3CC0421F00DFE164B0B
S31501001300196804FB0000013121F006FE134B12E0BF
S31501001310134A1368C3F381530E48022B146828BF7E
S315010013200020C4F30541C4F3CC04013121F0F4FDDE
S315010013300C4B04FB00001968013121F0EDFD0A4B4D
S315010013401B68C3F3C213D84010BD00BF7040D0FF65
S315010013504040D0FF40787D01E440D0FF4C40D0FFB3
S315010013608040D0FF9840D0FF6440D0FF194B10B5A4
S31501001370186810F003002AD001280DD153F86C4CDF
S31501001380C4F3054114480131C4F3CC0421F0C4FD72
S31501001390124B04FB000014E0022817D1104A13680F
S315010013A0C3F381530C48022B146828BF0020C4F3F1
S315010013B00541C4F3CC04013121F0AEFD094B04FB18
S315010013C000001968013121F0A7FD00E00020800826
S315010013D010BD00BFAC40D0FF40787D015840D0FF22
S315010013E08040D0FF9440D0FF194B10B51868C0F368
S315010013F0011058B301280ED153F86C4CC4F30541C2
S315010014001448013121F088FD134B1968C4F3CC044B
S3150100141004FB000015E0022817D1104A1368C3F334
S3150100142081530C48022B146828BF0020C4F30541E0
S31501001430C4F3CC04013121F06FFD094B196804FB9B
S315010014400000013121F068FD10BD002010BD00BF74
S31501001450AC40D0FF40787D015440D0FF8040D0FFA2
S315010014609040D0FF10B546F2A8111E4808F048F981
S3150100147046F2A8111C4808F043F900211B4808F060
S315010014803FF900211A4808F03BF91A4CFFF7E6FE2E
S31501001490A0FB04231848990C08F032F9FFF7FEFE69
S315010014A0A0FB04231548164C990C08F029F9FFF7FF
S315010014B017FFA0FB04231348990908F021F9FFF748
S315010014C055FFA0FB04231048990908F019F9FFF705
S315010014D08BFFA0FB04230D48BDE81040990908F0D5
S315010014E00FB900BF4E5B0201695B0201845B020119
S315010014F0A55B020183DE1B43C65B0201E05B0201C1
S31501001500D34D6210FA5B0201155C02012F5C0201E8
S3150100151010B5FFF7E5FE044C2060FFF727FF60607A
S31501001520FFF762FFA06010BD080F03011EFF2FE148
S31501001530100F11EE020BC0E3010AC0E3100F01EE1A
S315010015404FF07FF56FF07FF534109FE534209FE56E
S31501001550021081E0000091E52C309FE5030080E157
S31501001560000081E54FF07FF56FF07FF5104F11EE2A
S31501001570024B84E3014A84E3104F01EE0000A0E32D
S315010015800EF0A0E10000C2FF5C5000000800000060
S31501001590F04F2DE928119FE528219FE50230A0E1B2
S315010015A0F00FB1E8F00FA3E8F00FB1E8F00FA3E8F0
S315010015B0F00FB1E8F00FA3E84FF07FF56FF07FF57C
S315010015C032FF2FE1F08FBDE8F04F2DE9200052E305
S315010015D00000000A0300009AF00FB0E8F00F81E85E
S315010015E0202052E2F8FFFFEA040052E30000000A5D
S315010015F00300009A1000B0E8100081E8042052E2CE
S31501001600F8FFFFEA000052E30100000A003090E50E
S31501001610003081E5F08FBDE894009FE50410A0E35A
S315010016201920A0E3013080E0004093E5025084E1F7
S31501001630005083E54FF07FF56FF07FF55410A0E37E
S315010016400320A0E3013080E0002083E55810A0E3E9
S315010016500320A0E3013080E0002083E59010A0E3A1
S315010016600120A0E3013080E0002083E59410A0E38F
S315010016700120A0E3013080E0002083E534009FE5EE
S3150100168034109FE50020A0E3002081E50410A0E3CB
S31501001690012080E00130A0E38330A0E1004092E523
S315010016A0044083E1004082E54FF07FF56FF07FF55E
S315010016B0FCFFFFEA0040D0FF0050D0FFE080D0FFE2
S315010016C0A8000000301500010000FFFF08B510F06A
S315010016D00BFC02200249BDE8084010F017BC00BF10
S315010016E0140F030108B5024807F0F6FF002008BDF4
S315010016F04A5C020110B588B0FFF7E8FF2349244888
S3150100170006F099F9234B1A68234C684621461DF0C9
S315010017103AFB6946214806F0B5F82149214806F009
S315010017208AF9214B1A68214668461DF02CFB694649
S315010017301E4806F0A7F81E491E4806F07CF91E4908
S315010017401E4806F078F91E4B1A68214668461DF0B8
S315010017501AFB69461B4806F095F81B491B4806F01B
S315010017606AF91B4B1A68214668461DF00CFB69464F
S31501001770184806F087F81849184806F083F81849FA
S31501001780184806F07FF8002008B010BD2880D0FF69
S315010017906B5C02018880D0FF745C02017B5C0201F4
S315010017A08050C2FF8C5C02018C80D0FF975C0201E5
S315010017B090150001AA5C02011C50D0FFBB5C02011E
S315010017C08080D0FFC55C0201000080FFD75C02016A
S315010017D08480D0FFDF5C0201055D0201EF5C02013E
S315010017E0B65D0201A75D020100207047024804218F
S315010017F0002212F0ADB900BF004070FF00F061BBDE
S3150100180074D09FE507D0CDE380D04DE207D0CDE37C
S315010018100D80A0E10000A0E36A0000FA44D098E53B
S3150100182007D0CDE3008098E5808048E214E08FE29E
S31501001830480098E500E08EE0440098E50810A0E134
S31501001840342098E522FAFFEA4FFAFFEB2C009FE5D8
S315010018502C109FE50020A0E3010050E10020803517
S3150100186004008032FBFFFF3A200000FA1F0000FB54
S315010018700800A0E1341098E508F09FE580FEFFFF1F
S3150100188000000000000000001B1900010020704745
S315010018900020704708B5064807F01EFF02210548DB
S315010018A010F0D2FD044807F017FF002008BD00BF65
S315010018B0105E0201A08601008FD2020108B503491C
S315010018C0034807F01DFF002008BD00BFD038020104
S315010018D0185E020110B50A214FF4E132034844466D
S315010018E006F042F9A060002010BD00BF1F5E020194
S315010018F07047704770477047704770477047704729
S315010019007047D8F8003000229A61D8F80020D8F83C
S315010019103830D36170470020704708B50C46D8F8B7
S31501001920043043F00103C8F804301D4B1A681D4BFF
S315010019301A60FFF763FF21F044FA14F049F84FF4F7
S315010019408421A4F58420184C08F07AF8FFF7E3FF08
S31501001950164807F0C1FED8F8000011F001FF09F0A2
S3150100196031F80DF035F809F04EFB07F0BBFFFFF734
S31501001970C1FE00F057F900F06BF9102122680C48FE
S3150100198006F0F2F8206021F026FA0A4807F0A4FED4
S31501001990D8F800001FF0F2FB0CF0A3FBFCE700BF38
S315010019A09000000184390301102D0301285E020114
S315010019B0305E0201395E020108B5024807F08CFE6D
S315010019C0FEE700BF415E02012DE9F04200218022BF
S315010019D040461CF02FFC2E4B2E4810211B68C8F8E0
S315010019E03C304446D8F8542006F0BEF860652A4CCF
S315010019F054F8047F27B1B8470028F9D0FFF7DCFF78
S31501001A00D8F838204FF48041C8F8501041F29B01B4
S31501001A10D8F85040121B120C1204C8F84C20D8F802
S31501001A203C40141B24F47F6424F00F04A4F58425A0
S31501001A30A4F58526A5F12002C8F80020D8F80020D3
S31501001A40A03DB03E5160C8F84050D8F80020D8F803
S31501001A5008301360FFF755FF1048D8F80030D3F867
S31501001A601C9007F039FE39460D4A48461BF090FA9C
S31501001A700C4B284680221B68C8F834404146C8F8FA
S31501001A804460E41AC8F84840BDE8F0421CF000BCC6
S31501001A908C0000016B5E0201280F03017A5E0201D0
S31501001AA051B6020180000001D8F8003037B504466E
S31501001AB05B68056E1048019306F02CF838B11021C9
S31501001AC001AA1DF0C5F80D48019907F019FE0F206E
S31501001AD00BF0AEFF0A4807F013FEFEF7BEFD236FBB
S31501001AE00BB1E26E02E0D8F800309A680020019945
S31501001AF0A84703B030BD00BF825E0201895E0201C4
S31501001B00AE5E0201036F70B5044688B0002B3AD071
S31501001B1000F19006E16E039330460BF09FFDA26E35
S31501001B20616E04F1780330460093521A04F174038E
S31501001B300BF034FD18BB304604F16C0103AA0BF01F
S31501001B40B7FD0546E0B9E06E012109F073FC04A971
S31501001B50E06ED8F80030059507959A69DB6904921D
S31501001B6006AA0693012309F053FDE06E09F025FE4E
S31501001B70E06E616F0123A26F09F0CEFB08E0054616
S31501001B8035B1044800E0044807F0BAFDFFF714FF39
S31501001B9008B070BDC55E0201E55E020110B5694679
S31501001BA0D8F80040A1F58051D8F80030DA69A36968
S31501001BB0BDE810401A44521A1CF018B9704770B5A6
S31501001BC010F030041D4614D110F0400603D018461B
S31501001BD0FFF798FF0FE010F08004184603D0FFF7D7
S31501001BE063FF344607E0FFF78DFF2846FFF75CFFEA
S31501001BF001E04FF0FF34204670BD10B5074B446A33
S31501001C009C4204D0064807F067FD012010BD836A97
S31501001C100B60C36A0020136010BD00BF18286F0156
S31501001C20165F0201074AD8F84030191F11600649AC
S31501001C30A3F20443D8F8402008320A60034A13602D
S31501001C40FFF7D6B8940000019C000001980000013E
S31501001C50EFF3008323F0800383F300817047EFF3F2
S31501001C60008040F0C00383F3008180F08000C0F360
S31501001C70C010704708B501481DF092F8335F0201A4
S31501001C8030B5A3B004462B4902A880221CF000FB04
S31501001C90236B256C28480093E36A0193E16BA26BE1
S31501001CA0636B07F02DFDA16A626A236A234807F078
S31501001CB027FD236922480093E169A269636907F058
S31501001CC01FFD23681F480093E168A268636807F057
S31501001CD017FD002DB4BF4E216E2115F0804F14BFA4
S31501001CE05A227A2215F0005F14BF4323632315F0AD
S31501001CF0805F14BF562076200090134807F000FD40
S31501001D00236C124A22A8124C13F0800F14BF1146FD
S31501001D10214613F0400F03F01F0308BF224600EBD4
S31501001D2083030C4800900C4853F8803C07F0E8FC0C
S31501001D3023B030BD88340201465F02018B5F020188
S31501001D40AF5F0201DF5F02010F600201A5620201BE
S31501001D50CDFF0201008202011F60020108B504469F
S31501001D60034807F0CDFC2046FFF78AFFFFF782FF05
S31501001D703E60020108B50446034807F0C1FC20464F
S31501001D80FFF77EFFFFF776FF5560020108B50446AF
S31501001D90034807F0B5FC2046FFF772FFFFF76AFF1D
S31501001DA06960020108B50446034807F0A9FC20460C
S31501001DB0FFF766FFFFF75EFF7960020108B504468B
S31501001DC0034807F09DFC2046FFF75AFFFFF752FF35
S31501001DD0C360020108B50446034807F091FC20469A
S31501001DE0FFF74EFFFFF746FFCD60020108B5074832
S31501001DF007F072FC4CF250301CF0F8FAFFF72FFF97
S31501001E000020FEF72DFD002008BD00BFD1610201B3
S31501001E10704700204FF0FF31FEF7DEBB014807F0A7
S31501001E205BBC00BFE061020182B000230193019B0C
S31501001E30632B03DC0046019B0133F7E702B07047D1
S31501001E407047D8F84C3041EA005141F4406143F8FB
S31501001E50201070477047F8B500F57F2303F6FF732E
S31501001E60050D1944D8F84C702E460C0DA64205D224
S31501001E7030461146FFF7E5FF0136F7E707EB850028
S31501001E8007EB8401BDE8F840FEF797BB08B511EEF4
S31501001E90102FFFF7C9FF42F4805201EE102F08BD43
S31501001EA008B5FFF7C1FF11EE102FFFF7BDFF22F4B2
S31501001EB0805201EE102F08BD11EE100FC0F3003055
S31501001EC0704710B511EE102F12F001042AD1FEF75A
S31501001ED04EFB224610461221FFF7B3FF0132B2F53F
S31501001EE0805FF7D1D8F80040A269120DE169A369B4
S31501001EF00B44B2EB135F05D210461621FFF7A1FF83
S31501001F000132F3E7D8F84C3002EE103F4FF0FF33C1
S31501001F1003EE103F11EE102FFFF786FF42F001028C
S31501001F2001EE102F11EE102FFFF77EFF42F0040293
S31501001F3001EE102F10BD10B511EE102FFFF774FF33
S31501001F40530709D5FFF770FF11EE104FFEF7FEFAA2
S31501001F5024F0050401EE104F10BD11EE100FC0F371
S31501001F608000704703460A460148194607F0C8BB78
S31501001F70FD6102011FB5D8F8004027486168FFF7E7
S31501001F80F1FFA1682548FFF7EDFF25480021FFF77E
S31501001F90E9FFA1692348FFF7E5FFE1692248FFF759
S31501001FA0E1FF224901A81CF047F801A805F0B2FD9E
S31501001FB01F4A01A9002818BF02461E4807F0A0FBC8
S31501001FC01D4805F0A7FD01461C4807F099FB21684D
S31501001FD01B4807F095FB1B48D8F84C10FFF7C2FFCA
S31501001FE01948D8F83410FFF7BDFF1848D8F848103B
S31501001FF0FFF7B8FF1648D8F84010FFF7B3FF1548AA
S31501002000D8F84410FFF7AEFF1348D8F81810FFF7B9
S31501002010A9FF002004B010BD17620201236202016C
S315010020202F62020139620201426202014A62020121
S315010020300D620201526202015D62020164620201E5
S31501002040766202018C620201956202019F620201BF
S31501002050A9620201B0620201BA62020103460846A0
S3150100206011461847012A70B5154618DD1C4610227F
S3150100207054F8040F00211CF0B3FD06460A48314608
S3150100208007F03EFB691E22463046FFF7E7FF041CB8
S315010020900146064818BF012407F032FB01E04FF064
S315010020A0FF34204670BD00BFE66202010E630201E5
S315010020B038B500F1900420461BF047FE0BF057F8A7
S315010020C005460BF063F82946024620461BF048FEFA
S315010020D02046FFF763FD2046BDE838401BF017BFD9
S315010020E038B504462146184807F00AFB20460BF08E
S315010020F08BF90128054621D1144807F0EDFA22682B
S31501002100134B9A4201D0134804E020460AF0D8FF47
S3150100211018B9114807F0E0FA14E020460BF0C4F8AC
S315010021200E4807F0D9FA20460AF0DFFF08B90C4835
S31501002130F0E70C48002507F0CFFA03E00A4801252D
S3150100214007F0CAFA284638BDD5630201F6630201D3
S31501002150270519560D640201226402013A6402013F
S3150100216055640201666402016A64020110B50C46F7
S31501002170034805F0CFFC21460BF094FFC00F10BDBC
S315010021808164020130F0800210B508D11C6E054849
S31501002190214607F0B5FA0F200BF04AFCA0470120B3
S315010021A010BD00BF8964020130F0800210B50AD16A
S315010021B01C6E0648214607F0A3FA0F200BF038FCE7
S315010021C0D8F80000A047012010BD00BFC06402017D
S315010021D02DE9FF4E994630F080038A46164653D1C3
S315010021E099F82230D9F80070042B01D0002708E0B5
S315010021F003AB3846012102AA0AF091FF039B002B8B
S31501002200F4D0BAF1020F29DD0025022456F8240084
S3150100221001341BF075FF544500F101000544F5D169
S315010022202846043607F004FD4FF0020B0025202353
S31501002230044656F8041F601901931BF0FDFE0BF1CD
S31501002240010B30681BF05CFFD345019B05440CD0A4
S31501002250BBF1020F1CBF63550135EAE70C4805F0D7
S3150100226059FC0C4C002818BF0446D9F860500A489E
S31501002270294607F045FA0F200BF0DAFB3946054AE5
S315010022802346D8F80000A847012004B0BDE8F08E27
S31501002290F96402010082020102650201012AF8B510
S315010022A016461F4604DC0B4B1868BDE8F84017E7D5
S315010022B00025012457F824000021102201341CF0C6
S315010022C08FFCFFF70DFF002818BF0125B442F1D19D
S315010022D02846F8BD102D03012DE9F74607469DF85E
S315010022E03000894692460A9D9DF82C400D9E019329
S315010022F00AF0C6FF014614B1012C1AD033E0BD42E3
S3150100230001D0554504D12B48012407F0F9F909E01C
S31501002310294807F0F5F928465146019A4FF48033CA
S315010023200AF062FF019B25482B44336007F0D4F97C
S3150100233020E0234807F0E4F928464FF4000152460D
S3150100234001AB1AF0A3FF48B11E4807F0C5F90E9B71
S3150100235033B36FF005000BF06BFB21E0019B0446E4
S315010023602B44336006E01848214607F0C9F96FF09F
S3150100237002001BE031682846491B8900FEF72CF94B
S315010023800E4807F0A9F907200BF052FB5CB94D4541
S315010023900BD23368BB4294BF00206FF0010005E009
S315010023A04FF0FF3002E0002000E0204603B0BDE818
S315010023B0F08600BF4B6502015A650201666402019F
S315010023C06D65020186650201D76502012DE9FF4EA1
S315010023D017468B4C4FF49872039182460021994619
S315010023E020461BF027FF874808F024FAC4F8880026
S315010023F02046FFF75DFE012F02DC834B1D6806E0D8
S31501002400D9F80400002110221CF0EAFB0546012040
S315010024104FF0000B0BF00CFB28460BF005F8C4F847
S3150100242054B0C4F850B0054606460AF0EDFF01283F
S3150100243045D17648294607F063F9714B2A68D3F8E6
S3150100244088B0734B9A4205D0724807F045F94FF0B0
S31501002450FF3030E002200BF0EBFA28460AF030FE9E
S3150100246028B96D4807F038F96FF0010023E0032021
S315010024700BF0DEFA28460AF017FFBBF1000F0FD06A
S31501002480664807F029F928460AF02FFE28B964485C
S3150100249007F036F96FF002000DE0624807F01CF90B
S315010024A004200BF0C5FA697F022973D05E4807F054
S315010024B027F96FF003000BF0BBFA002609E0DAF802
S315010024C000105E46594807F01BF96FF06B000BF0E0
S315010024D0AFFA636D4A4D0BB955481BE030460AF019
S315010024E093FF0128824614D1B27F06F1400085F898
S315010024F05D20F37F85F85C30317F85F85E10F368E7
S315010025001BBA0344EB6433691BBAAB656B6C33B915
S315010025100FE0484807F0E0F84FF0010A6BE0AB69BD
S315010025200E2A18BA286606D12B6DAB6503442B66B5
S3150100253003E0414821E0022A5AD1052923D1304D31
S315010025403846494605F1640300932A4605F16803B6
S31501002550019302230AF06BFF08B138480DE005F13B
S315010025606C0303980093394605F170034A460193BB
S315010025702B460BF021F918B1314807F0ADF83AE0D6
S31501002580E86E00F075FD0123A664C4F88C304FF0A7
S31501002590000A30E005200BF04BFAAB7F022B1AD173
S315010025A005F140032365EB681BBA636507E0042B5D
S315010025B014D1244A28460021131D0AF0B0FD2946EC
S315010025C0402221481BF088FE062001232560636412
S315010025D00BF02EFA7DE7EAD8012B00E00E2BDFD0B7
S315010025E01A48DAF8001007F08BF86FF0040062E77A
S315010025F0042AC8D1A1E7504604B0BDE8F08E00BF59
S31501002600C0390301FA650201102D030101660201B9
S315010026102705195610640201256402013A64020174
S31501002620586402016664020133660201736602019F
S3150100263096660201B6660201D9660201FD660201CD
S3150100264022670201103A0301C439030152660201ED
S3150100265070472DE9F04E012A92B01E4682464FF090
S31501002660000389461746089340F3CB80706809A991
S3150100267010221CF0B5FA099B1B78002B00F0C180D3
S315010026803A2B00F0BE80232B00F0BB807068082235
S31501002690AE4906F0A9FC002800F0AE80C468012C02
S315010026A006D1504649467A1E331DFFF78FFE7EE05E
S315010026B0A74DD5F88C202B46A24203DBA54807F08F
S315010026C01FF899E0224395F85E10C5F88C20082C76
S315010026D0A14A52F821905DD005DC022C18D0042CB9
S315010026E040F08D8032E0202C6ED002DC102C60D0C0
S315010026F085E0402C73D0802C40F08180FFF7AFFA43
S31501002700FFF7A6FF204639463246914BC84776E089
S315010027109A6D03F148008E4D009293F85C20019268
S3150100272093F85D2002920AAA0392002204920FC82E
S31501002730FFF7D2FD0446002840F00481A96D05F19A
S3150100274090000A9A521A1BF051FBFBE0596E9A6EE1
S315010027507F4D521A05F1780305F19000009305F1BA
S3150100276074030AF01BFF0446002840F0EB806A6FF1
S315010027700AA87A491CF007FB0AA9794805F082F8EC
S315010027800AA87649AA6F1CF0FEFA0AA9754805F04F
S3150100279079F8D7E005F19000E96E0AF05FFF05F1DF
S315010027A0900005F16C0105F170020AF081FF044603
S315010027B0C8E0204639463246654BC84704460028DC
S315010027C000F0C080684814E0202039463246604B4C
S315010027D0C8470446002800F0B580644809E0204651
S315010027E0394632465A4BC8470446002800F0AA80AB
S315010027F05F4806F085FFA5E04FF0FF34A2E0002414
S31501002800A0E0504649463A463346FFF7DFFD044607
S31501002810002840F09680FFF722FA4D4D07900CF004
S3150100282039F9AB6D05F14800009395F85C300193D9
S3150100283095F85D30029308AB0393012304930FC807
S31501002840FFF74AFD002824DA421C12D0831C17D157
S315010028506B6C3BB195F82230042B1AD1454806F032
S315010028603BFF16E0444806F037FF6FF070000BF0AF
S31501002870DFF8504649463A463346FFF7B7FA08E0CD
S31501002880033006D1079B0BB1FFF7E2F96FF00600A3
S3150100289043E0A96D089ADFF8B8B0521A0BF190001F
S315010028A01BF0A4FA95F85D30012B1DD1079B0BB1E6
S315010028B0FFF7CEF9314805F02DF978B130491BF013
S315010028C0F3FB814650B92F490AA86A6D4C461CF0A4
S315010028D05AFA2D480AA904F0D5FF33E02B6E781E6B
S315010028E0311D1BBA98472DE008200BF0A1F89BF883
S315010028F05E20194B53F8224094B9079B0BB1FFF7A1
S31501002900A7F995F85E000AF0A8FC95F85E20014645
S315010029101E4806F0F5FE6FF007000BF089F810E08F
S31501002920FFF796FE394632465B460020A0476FF018
S3150100293008000BF07DF8504649463A463346FFF704
S3150100294055FA0124204612B0BDE8F08E640F03014A
S31501002950C0390301466702010835020170670201A9
S3150100296074670201816702018C670201AE67020189
S31501002970CC670201EB670201256802016C6802015E
S3150100298076680201796802017D68020186680201A2
S3150100299073B505460D480E4605F0BCF808B900208A
S315010029A012E00B491BF080FB04460028F7D1094BC6
S315010029B0019009481968009606F0A2FE28462146AC
S315010029C001226B46FFF745FE02B070BD6C6802013D
S315010029D0B4680201102D0301B868020108B5034865
S315010029E006F07AFE4FF0FF3008BD00BFE568020130
S315010029F02DE9F042D0B0154681464FF498720E4645
S31501002A0004A800211C461BF015FC04A8FFF750FB87
S31501002A10012D03DC264B1B681C9305E06068002131
S31501002A2010221CF0DDF81C901C9802A903AAFFF7DE
S31501002A30E4F8002838D1029B28A8039A1C99D21AD7
S31501002A401BF0D4F91DAB2846009321461EAB04AA00
S31501002A50019302230AF0EBFC08B116480CE01FAB08
S31501002A6030460093294620AB2246019304AB0AF077
S31501002A70A3FE074618B1104806F02EFE14E01F9873
S31501002A8000F0F6FAFFF7EBF80CF004F8FFF7E0FDBB
S31501002A902946224604AB3846FFF791F848463146A7
S31501002AA02A462346FFF7A2F9012050B0BDE8F0827D
S31501002AB0102D0301FD660201226702012DE9F74689
S31501002AC00BF044FF1C4F06461C4806F005FE346811
S31501002AD0B4422CD054F8342CA4F13409DFF868A0A0
S31501002AE00025002AB4BF53232E2312F0010F14BF71
S31501002AF049202E2012F0020F14BF4F212E218DE8FE
S31501002B000300A4F12C010E4806F0FAFD57F8253012
S31501002B104B4504D10B485AF8251006F0F1FD013555
S31501002B20032DF3D10A2006F0C7FD2468D0E7002063
S31501002B3003B0BDE8F08600BFBC5D0301BF6A0201B8
S31501002B40DB6A020123AE0201182D03012DE9F04EC5
S31501002B509CB014468A460490292003930AF068FF24
S31501002B60032C06DD6FF029004FF0FF340AF060FFF9
S31501002B70A1E02A200AF05CFF012C07DD039B00215E
S31501002B80102258681CF02CF8054601E04FF4004568
S31501002B902B200AF04DFF032C18BF00214FF0010432
S31501002BA008BF039B504607AA08BF996808AB009463
S31501002BB00EF094F9B0F1000902DA6FF02B0020E073
S31501002BC0079B2C205E680AF033FF51460BAB3C484D
S31501002BD00093324613AB01934B4606F091FD079BDA
S31501002BE0304608992246D3F860A02B46D0470128E3
S31501002BF0824609D0334831464A4606F081FD6FF0D8
S31501002C002F000AF015FF56E030200AF011FF284682
S31501002C100AF0FAFB0128044633D131200AF008FFF5
S31501002C2028460AF04DFA28B9274806F055FD6FF0F7
S31501002C303100E6E732200AF0FBFE28460AF034FBB3
S31501002C400A9BE86803F13F0200BA1946104405934E
S31501002C5020F062F9079A0899136E01311F46059B08
S31501002C602B4400F1FF3B824630465A46B847584549
S31501002C7010D0144831464A4606F042FD6FF0320044
S31501002C80BFE76FF0300054460AF0D2FE0F4806F057
S31501002C9023FD10E033200AF0CBFE0A99284601FBFA
S31501002CA00AF1FDF799FC0A4B04981D60039B19680C
S31501002CB0FFF76EFE044620461CB0BDE8F08E00BF4D
S31501002CC01B6B02015F6B0201776B0201936B0201C1
S31501002CD0102D03012DE9F846012791469A463E46F5
S31501002CE04E4526DA012E5AF8264002DD202006F04E
S31501002CF0E3FC204612491BF022FB0546A0B1002742
S31501002D0020462F702C4606F0E7FC5C230C4904F89C
S31501002D10023B20461BF013FB05460028F0D1204656
S31501002D202F4606F0D9FC02E0204606F0D5FC013616
S31501002D30D6E717B10A2006F0BFFC0020BDE8F886E9
S31501002D40AA6B0201012A08B506DD586800210A228C
S31501002D501BF046FF034600E000236FF00100C01A96
S31501002D6008BD13B50224009418F01AFF02B010BD75
S31501002D7013B54FF0100E02248DE8104018F072FEC4
S31501002D8002B010BD13B54FF0100E01248DE81040AE
S31501002D9018F068FE02B010BD13B50124009418F0B6
S31501002DA0FFFE02B010BD012AF0B51D4699B004DC44
S31501002DB0104806F0A5FC00201AE0012403AA00949D
S31501002DC05868996804AB0EF089F8061E0FDB039864
S31501002DD004A9476817F0BCFF30B169683A46334623
S31501002DE0054806F08DFC02E018F0D5FB00E0204610
S31501002DF019B0F0BD9E6D0201C96D02012DE9F046C3
S31501002E00042A99B01D464FF00003039303DC06F034
S31501002E102BF9044639E001266868009603AAA968D9
S31501002E2004AB0EF05BF8B0F100092DDB039804A9A1
S31501002E30476817F08DFF044630B169683A464B463C
S31501002E40144806F05DFC1FE021461022E8681BF0DD
S31501002E50C7FE21461022824668691BF0C1FE514613
S31501002E600246286918F023FC431C014608D1CDF817
S31501002E7000903B4629696A68074806F041FC03E071
S31501002E80064806F03DFC00E03446204619B0BDE890
S31501002E90F08600BFF46D0201206E02014B6E020145
S31501002EA0D1B1431813F8013C0BB10A2B14D10D4AC9
S31501002EB010F8013B23B1D35C13F0B7030AD10BE041
S31501002EC000290BDD012903D003782BB10139EFE786
S31501002ED0084670470029F9DC002070470CBF012025
S31501002EE000207047704D020138B51A4D2C680CB997
S31501002EF0194827E0204618F075FE041E25DA19F058
S31501002F00EDFD0146154806F0FBFB0A3419D12B6885
S31501002F10596909BA0F2905D81148102206F0F0FBA4
S31501002F2000232B602A6893691BBA112B0FD95169AB
S31501002F3011220C4809BA06F0E3FB064B0020186083
S31501002F4038BD094806F0DCFB01E0012038BD002050
S31501002F5038BD00BFF03A0301EE7102011972020198
S31501002F60377202014F72020151B602012DE9F8468C
S31501002F7006460C46002963D0FFF792FF0546E8B1E5
S31501002F803048002506F0A8FBA54212DA002D02DD25
S31501002F902D4806F0A1FB3046013506F09DFB304673
S31501002FA01BF0AEF8054430461BF0AAF80130064482
S31501002FB0EAE72448BDE8F84606F08EBBA30725D10B
S31501002FC0402C06DD314622462048BDE8F84606F08B
S31501002FD097BB1F48002506F093FB002CB8BF0334AE
S31501002FE0DFF87C90DFF884A0A410671EA5420BDAF7
S31501002FF056F82510BD42B4BF4A465246154801351A
S3150100300009BA06F07DFBF1E7134815E0402CD9DC3F
S31501003010124806F075FB124FDFF85090A5420ADA06
S31501003020621E715D9542B4BF3A464A460D4806F0A6
S3150100303067FB0135F2E70C48BDE8F84606F060BBD0
S31501003040BDE8F8866A720201677202016C720201BA
S315010030507C7202017E720201FE7B0201877202010D
S315010030603204030189720201DCA402010082020119
S315010030707FB50246064B0749186001A81BF083FE7F
S3150100308001A9054804F0FEFB07B05DF804FB00BF8B
S31501003090F03A03017067020190720201012A2DE9DB
S315010030A0F04E924696B01F4640F356815868037813
S315010030B0612B38D1022A07D1FFF716FF002839D034
S315010030C0A74BA84819682AE000211022B8681BF00E
S315010030D087FDFFF7CDFFFFF707FF58B3BAF1030FDF
S315010030E000F04D841022F86800211BF079FD9C4BFD
S315010030F00246186843681BBA9A4206D211469A4894
S315010031001A4606F0FDFA00F03ABC014619F048FCF1
S31501003110002800F0348419F0E1FC0146934806F0DA
S31501003120EFFA00F02CBC8E4D2B682C4633B9904833
S3150100313006F0D2FA4FF0010900F026BC8D490222B1
S315010031401AF0BFFF8146002838D1BAF1030F40F3C8
S315010031500381B868494610221BF042FD2860FFF73B
S31501003160C3FE0028E6D0F868494610221BF038FD58
S31501003170BAF1040F064603D12B685B681BBA0FE050
S315010031804946102238691BF02BFD2A68526812BA8B
S3150100319090420146034603D2774806F0B1FAC9E7E1
S315010031A0206831461A4619F0FBFB20B119F096FC4E
S315010031B001466E4875E26A4B1E60E5E378680222B5
S315010031C06E491AF07EFFB8B9BAF1030F40F3C48015
S315010031D0B9682868FC6818F0B7FF011EC0F25D8265
S315010031E02868224619F0AFFB002880F2C88319F03F
S315010031F075FC0146624854E278680378732B40F007
S31501003200A280BAF1030F40F3A780BB68BAF1040F9D
S315010032100393FB6804937FD03B6907F11009AAF178
S31501003220040A0A931A783C2A2DD10DF1580B002570
S3150100323001334BF8303D231D2E460A9F39783E292E
S315010032406BD0564580F29E8321B9013659F8262066
S315010032500A92F2E700223846594605931BF0C0FC54
S315010032600A9A059B0435D21B002A00BA43F8040BBF
S3150100327002DC4448394614E20A9A11782029DCD145
S3150100328001320A92F8E75B2A2FD10DF1580B01336F
S3150100329000253D4F4BF8303D3C4B2E460A9A12789D
S315010032A05D2A1CD00A980278202A02D101300A90A0
S315010032B0F8E722B9013659F826200A920DE09A5C00
S315010032C0059312F0440F0AD0594610221BF088FCD0
S315010032D0059B0135013707F8010C5645DEDB0A9BD4
S315010032E019785D2940F04E8317E00025DFF89890A4
S315010032F02E460A9801361AF003FF0A9900F1010BCE
S3150100330048461AF099FE07EB86035645D9441B69D0
S315010033105D440A93EDDB00E000250399206818F06F
S3150100332013FF011EC0F2B9810D4B0095049A53F8A3
S31501003330040B19F027FA002880F2218319F0CEFB3D
S3150100334001461348ADE1672B40F0CE80BAF1040F78
S315010033504FF0000307931DDC4FF0FF3914E300BF64
S31501003360F03A0301B1720201CF720201FE7202014B
S315010033701A7302018A7302018D73020144770201F5
S31501003380E673020104740201F43A0301704D02016D
S3150100339040740201BAF1050FBE6802D13378732B6E
S315010033A0DAD120683969FD68D7F8149018F0CCFE97
S315010033B0B0F1000BC0F2718133786E2B04D0732B00
S315010033C049D1BAF1050F46D15946206818F0A6FF32
S315010033D00DF15809594649F8380D82464A46206882
S315010033E018F0A2FC33786E2B834606D1786900214A
S315010033F010221BF0F5FB034601E04FF0FF334FF0BF
S31501003400FF370AF101020392089A52451ADD039920
S315010034108A42327808BF01376E2A09D19F4207D105
S3150100342059462068002218F09FFD0146284647E0CC
S31501003430594620684A46049318F076FC049BB0F17D
S31501003440000BE1DA3378732B03D10AA8A4497A1C5D
S3150100345047E0A448BFE04A462068594607AB18F042
S315010034602DFEDDF81C90B9F1000F074604D1284660
S315010034709D4904F007FA87E270DD3378762B24D173
S315010034804946FFF70DFD10B12846394618E0B9F156
S31501003490040F03D10AA895493A6822E019F00304FA
S315010034A011D1B9F1140F0EDC0AAB3A5903EB440002
S315010034B08F4904341BF067FC4C45F5DB0AA9284605
S315010034C004F0E0F95BE28B4885E0612B03D10AA8A1
S315010034D089493A4605E0732B7FF43EAF83490AA832
S315010034E04A461BF050FCE9E7702B04D06C2B40F0E8
S315010034F0C780012600E02026BAF1020F06D0BAF1F4
S31501003500030FD7F808B003D0FD6802E0DFF834B244
S3150100351000252068594618F017FE071EC0F2BD8027
S31501003520F5B1764B39462A4618680AAB18F0C6FD3E
S31501003530DDF82890B9F1000F044605D159462A460F
S315010035406F4806F0DDF81FE208DD29466D4806F0F2
S31501003550D7F820460A99FFF709FD46E148465EE09D
S31501003560DFF8E4913946206808AA18F076FB431E75
S315010035700146082B7AD801A252F823F0A1350001A1
S31501003580DD350001FD3500015F3600016D360001B4
S315010035906D3600016D3600016D36000135310001D1
S315010035A020683946002218F0DFFCB54203460EDCDE
S315010035B0554AC5F120014944002808BF1346534A1C
S315010035C053481F78002F18BF1A4606F099F801359F
S315010035D01F2D50DD4F4806F093F8ABE56F1EB7423D
S315010035E001DD3D4647E0C5F121014B48494406F05E
S315010035F087F8002FF5D14FF0FF353CE039460C2214
S31501003600206818F015FB81680746206809BA18F08A
S315010036102CFC7B68024618BA00280A9004DA19F0D5
S315010036205DFA01463D483CE008D1B54223DCC5F1CF
S3150100363020013B48494406F063F81CE0B5421ADC18
S31501003640C5F120013748494406F05AF807F10C0044
S315010036500A99FFF78BFC344806F052F80BE0C5F1E6
S3150100366020013248494406F04BF804E0B5423FF7E1
S3150100367061AD2F4815E06B1C089F7FF473AF7EE1A7
S315010036802C4902221AF01DFD00285FD1B968206875
S3150100369018F05AFD194D011E06DA19F01FFA0146F6
S315010036A0254806F02DF845E5BAF1030F28680BDD2C
S315010036B0FA6819F0DEF8B0F1000980F2608119F0BC
S315010036C00DFA01461D4826E119F04CF9B0F1000941
S315010036D080F2558119F002FA014619481BE100BF33
S315010036E0DDD302015A7402010082020171740201E2
S315010036F03F8202017874020192740201F03A0301D9
S3150100370029A60201E474020198720201AF72020154
S31501003710B1740201B9740201D574020197740201F0
S31501003720DB740201E2740201DF740201EA74020130
S31501003730F7740201C5BE0201C07302010B750201D5
S31501003740267502019C1503019E150301786803780D
S31501003750682B4ED12B688E488E4E19685D6909BA61
S3150100376005F0CEFF23688C482DBA596809BA0A4676
S3150100377005F0C6FF23688948996809BA05F0C0FFB4
S3150100378023688748D96809BA05F0BAFF23688548CE
S31501003790196909BA05F0B4FF2946834805F0B0FF57
S315010037A023688248996909BA05F0AAFF012D15D93E
S315010037B033687F48D96909BA05F0A2FF022D0DD0F9
S315010037C033687C48196A09BA05F09AFF102D05D9A4
S315010037D033687948596A09BA05F092FF206818F0EA
S315010037E065FB0146754805F08BFF754805F088FFB6
S315010037F0C5E0744903221AF064FC814640B9B868F1
S31501003800494610221BF0ECF92B6800BAD861BBE0DF
S31501003810786802226C491AF054FC0546A8B91022B0
S31501003820B86829461BF060FA102282468B46F86872
S3150100383029461BF059FA52465B46CDE9000120683C
S3150100384007F0B0FF00EAE0799EE0786802225F495E
S315010038501AF037FC8146002860D1BB681B78702BB3
S3150100386029D120684D4618F021FB0646584805F037
S3150100387047FF584805F044FFB54280F2858020682D
S31501003880294608AA0AAB18F0F5FA071E07DA19F055
S3150100389025F9B9460146504805F032FF74E00B9B05
S315010038A029464E480135099A00930A9B0193089BC4
S315010038B005F026FFE0E7612B1AD149461022F86888
S315010038C01BF012FA102282468B46386949461BF0D4
S315010038D00BFA52465B46CDE90001206818F0E1FE7D
S315010038E0B0F100094BDA19F0F9F801463C4812E04B
S315010038F0642B7FF431AD49461022F8681BF070F94C
S315010039000146206818F0F6FEB0F1000937DA19F021
S31501003910E5F80146334805F0F3FE35E078680378AB
S31501003920632B20D1BAF1020F10D0BAF1040F7FF444
S3150100393013AD00211022B8681BF052F900211022A4
S315010039400646F8681BF04CF9054601E000252E46AF
S315010039502068012107F06EFD206831462A460123C1
S3150100396007F0DAFC0BE0204902221AF0AAFB814695
S3150100397000287FF4F1AC206807F084FF04E04FF0E3
S31501003980000901E019488CE6484616B0BDE8F08EFC
S3150100399042750201F03A030151750201687502018F
S315010039A07E75020195750201AC750201BA750201B7
S315010039B0D1750201E8750201FF7502011676020151
S315010039C051B602012D76020178000301317602011A
S315010039D0347602014F76020181760201A076020158
S315010039E0BA760201D9760201BA7B02012574020177
S315010039F02DE9F04291465E481F4604F08BF80546D4
S31501003A005C4804F087F804465B4804F083F80646F0
S31501003A1035B12846002110221BF0E2F8054601E0E7
S31501003A204FF0FF352CB12046002110221BF0D8F8AB
S31501003A3004462EB13046002110221BF0D1F806466D
S31501003A40A9F10203032B5DD8DFE803F01E0E08027D
S31501003A503869002110221BF0C3F80646F8680021D8
S31501003A6010221BF0BDF80446B868002110221BF095
S31501003A70B7F8B9F1030F054606D10EF041FA8542B2
S31501003A80C4BF2C464FF0FF357F683C4839461AF0D3
S31501003A900BFBD8B13A4839461AF006FB10B3394840
S31501003AA039461AF001FBF8B1374839461AF0FCFAE3
S31501003AB0E0B1364839461AF0F7FAC8B13448394602
S31501003AC005F01EFE01354ED1324808E003466A1C58
S31501003AD0FAD0012B1ADB032B0CDC74B92E4805F046
S31501003AE0FBFD40E00223F2E70123F0E70423EEE7C2
S31501003AF00323ECE7042B03D008E0002EEED005E00B
S31501003B00BCB9EBE74FF0FF339D42DDD00133052B06
S31501003B1026D8DFE803F02803080C1E0E2846BDE868
S31501003B20F0420EF083BA2846214632460BE01B4886
S31501003B3017E0204609F068FC012808D1E26804F183
S31501003B404001284612BABDE8F0420EF013BA1448F5
S31501003B50C5E7284621463246BDE8F0420EF038BA9E
S31501003B60104805F0CDFD4FF0FF30BDE8F08200BFF3
S31501003B701F770201247702012D770201C28F02010C
S31501003B803A770201126C020140770201477702017E
S31501003B90C87702014C770201677702018A77020131
S31501003BA0936B0201B577020108B5034805F0A8FD3C
S31501003BB04FF0FF3008BD00BF8A77020173B5064694
S31501003BC0074C0D4607480849241A8DE80C00324671
S31501003BD02B46A410614305F065FA02B070BD00BF23
S31501003BE00000000000000000B76DDBB60023C25CD8
S31501003BF02E2A03D1034458783038704712B1013365
S31501003C00082BF4D101207047012A2DE9F04207461D
S31501003C100E4611DD541E586809490B2203F10409A9
S31501003C2005F0E2F940B1C5683146384622464B46B1
S31501003C30AC46BDE8F04260474FF0FF30BDE8F08288
S31501003C409C1B030108B5022102480EF0FDFB002072
S31501003C5008BD00BFA08601002DE9FF421D46131FC6
S31501003C609146012B02D94FF0FF303BE00021102293
S31501003C7068681AF0B5FF00211022C7B2A8681AF0C9
S31501003C80AFFF0446A868FFF7B1FF03280646EAD846
S31501003C90E868002110221AF0A3FFB9F1050F8DF88B
S31501003CA00F0005D12869002110221AF099FF00E0C2
S31501003CB0012021460419631A002B12DD012338461F
S31501003CC0009332460DF10F034D1C0EF019FC10B195
S31501003CD0064805F001FD42F6F8201AF087FB294651
S31501003CE0E9E7002004B0BDE8F08200BF097A0201CD
S31501003CF0052A2DE9F3421C4602D04FF0FF3029E098
S31501003D005868002110221AF06BFF00211022C7B259
S31501003D10A0681AF065FF0646A068FFF767FF03284B
S31501003D200546EAD800211022E0681AF059FF002161
S31501003D301022814620691AF053FFCDF800903146D2
S31501003D402A46034638460EF099FB18B1034805F09A
S31501003D50C3FC012002B0BDE8F08200BF227A020155
S31501003D60022A70B506D15868002110221AF091FF77
S31501003D70064601E04FF0FF360D48002505F0ACFC84
S31501003D802C46002E01DBB44208D1E0B20EF0F8FB5E
S31501003D9020B90848214605F0B3FC01350134802CD1
S31501003DA0EFD10A2005F088FCB5FA85F0400970BD0F
S31501003DB03B7A0201517A02012DE9F04E1746414A3A
S31501003DC01D46414B8AB0022FD2F8340193F800A068
S31501003DD099465C689E680390049202DC4FF0FF30BE
S31501003DE06DE011F0010B1AD15946102268681AF0DC
S31501003DF0F7FE594610225FFA80FAA8681AF0F0FE1B
S31501003E000446A868FFF7F2FE03280646E6D8032F04
S31501003E1005D0E868594610221AF0E2FE0390039F86
S31501003E200DF1180B102F3D465046A8BF102521460F
S31501003E30009532465B460EF021FB18B1234805F08A
S31501003E404BFC2DE005902146214805F059FC059BC8
S31501003E50AB4208DA1BF803101E48059305F050FC27
S31501003E60059B0133F4E71C48002DA8BF641905F032
S31501003E7033FC0023AB4210DA1BF803100593A1F1C2
S31501003E8020025E2A03D9154805F026FC02E01448F3
S31501003E9005F036FC059B0133ECE70A2005F00CFC26
S31501003EA07F1B002FBCDC049B002089F800A0C9F809
S31501003EB004401A46039BC9F80860C2F834310AB0B7
S31501003EC0BDE8F08E9C1B0301F43E0301227A020138
S31501003ED0577A02015D7A020166F6020109070301BA
S31501003EE01C600201032A2DE9F0461C4685B002DC5E
S31501003EF04FF0FF3043E05868002110221AF070FE9F
S31501003F00002110225FFA80F9A0681AF069FE0546C1
S31501003F10A068FFF76BFE03280746E9D8E068002191
S31501003F20102200241AF05CFE6A1E2946A2460646A5
S31501003F30144832442E4405F0E3FB731B002B13DDBA
S31501003F4001234846009329463A460DF10F030EF028
S31501003F5095FA00B1013450460DF10F0101220135E8
S31501003F6018F0DCFF8246E8E724B1074805F0B4FB08
S31501003F70002004E00548514605F0C2FB204605B085
S31501003F80BDE8F086637A0201A67A020108600201A1
S31501003F90052A2DE9F74681461D4618D158680021A4
S31501003FA010221AF01DFE002110228246A8681AF07E
S31501003FB017FE002110220646E8681AF011FE044693
S31501003FC0E868FFF713FE0328074605D9484603B0FC
S31501003FD0BDE8F04605F048B8286900211022C4EB77
S31501003FE00A051AF0FDFDF6B2214600EB0409494522
S31501003FF005EB010313D00124304600943A4601F142
S31501004000010A0EF07DFA20B1074805F065FB20464E
S3150100401006E042F6F8201AF0E9F95146E7E70020F2
S3150100402003B0BDE8F08600BF827A0201022A2DE9BB
S31501004030F046164687B01C4636DD58680021102228
S315010040401AF0CEFD002110220546A0681AF0C8FD1F
S315010040508146A068FFF7CAFD0328074624D8E06811
S31501004060002110221AF0BCFD102828BF1020032EB3
S31501004070824606D0206900210A221AF0B1FD0646C1
S3150100408001E04FF47A76ECB2CDF800A0204649461D
S315010040903A4602AB0EF0F2F910B1064805F01CFBE8
S315010040A030461AF0A3F9EFE74FF0FF3007B0BDE84D
S315010040B0F08600BF227A02012DE9F04E032A86B06E
S315010040C09B46039002D04FF0FF3078E03D4E11F051
S315010040D0010996F80CA0356977691BD11868012189
S315010040E005F0EEF9494610220446DBF804001AF001
S315010040F077FD494610225FFA80FADBF808001AF0CC
S315010041006FFD0546DBF80800FFF770FD032807463B
S3150100411001D9D8E7012429462B4805F0F1FA009484
S31501004120504629463A4604AB0EF0A8F918B127487D
S3150100413005F0D2FA0EE00499012C09BA049102D1D4
S315010041402348090E04E0022C06BF090C2148224827
S3150100415005F0D6FA214809F074FF18B9039B2BB371
S31501004160254423E01E4805A910221AF039FD012C29
S3150100417001D1000602E0022C08BF00040490049B52
S31501004180174A1BBA0493059BB3EB020912D000949C
S31501004190504629463A4604AB0EF0B2F910B1114821
S315010041A005F09AFA039B13B1254400E0A146B9F143
S315010041B0000FB0D1002086F80CA03561776106B0FA
S315010041C0BDE8F08EF43E03019E7A0201A57A020152
S315010041D0BF7A0201C67A0201CD7A0201D47A0201BE
S315010041E0705C0301097A0201002065E7012063E79B
S315010041F070470148704700BFA0860100024BC01AF4
S3150100420018BF4FF0FF307047A0860100012A10B594
S3150100421007D10EF0FFF8002401460C4805F070FAAC
S3150100422012E058680A2200211AF0DAFC044608480E
S31501004230214605F065FA20460EF0D8F8044618B175
S315010042400448214605F05CFA204610BDD87A0201E1
S31501004250EE7A02010A7B020110B50C4602782A2A7F
S3150100426010D10130002110221AF0BAFC022C05D01F
S31501004270042C05D0012C0AD1007810BD008810BD90
S31501004280006810BD002110221AF0AAFC00E00020EF
S315010042900123E400A340013B184010BD2DE9F34E74
S315010042A00D4601901646994619F02AFFDFF808A136
S315010042B000278346682F0AEB0703009370D0019805
S315010042C05A4657F80A1019F0FCFE0446002865D133
S315010042D057F80A0019F014FF83455FD1009B5F6808
S315010042E0B9F1000F2ED12B782A2B05D1681C214656
S315010042F010221AF075FC054633782A2B06D10021C7
S31501004300701C10221AF06CFC014600E0314628466A
S3150100431019F0CAFE052F48D8DFE807F003070B0D91
S315010043200F11B0FA80F464093FE0041C18BF0124A0
S315010043303BE0C40F39E0002822E0002825E0C44311
S31501004340E40F32E028464946FFF786FF494605460F
S315010043503046FFF781FF052F27D8DFE807F003076F
S315010043600B10151A2B1A5C425C411EE02C1A18BF61
S3150100437001241AE08542ACBF0024012415E08542E0
S31501004380D4BF0024012410E08542CCBF00240124BF
S315010043900BE08542B4BF0024012406E0083789E713
S315010043A004480024019905F0ABF9204602B0BDE8A6
S315010043B0F08E00BF5D7B020164350201042A10B54F
S315010043C01C4620D11868114605F07AF8821C03466E
S315010043D0062A10D8DFE802F0080F0F04040F0400C4
S315010043E0A0686168E26803E0A06800236168E2688A
S315010043F0FFF754FF03E0054805F06EF90020B0FA17
S3150100440080F0400910BD4FF0FF3010BD747B0201F2
S31501004410024B00221A609A685A6070470C3F0301EA
S31501004420034B1A69DA601A685A615A689A617047C9
S315010044300C3F0301034BDA681A615A691A609A69DB
S315010044405A6070470C3F030108B505F028F918B109
S31501004450BDE8084005F016B94FF0FF3008BD70B54C
S31501004460ADF5866D064601A86946022302930CF056
S31501004470E5F980B9054604466A460CA84FF4806101
S315010044800CF098FA021E0EDDA8190CA91444154465
S3150100449019F0FEFEF0E7009800240CF0BFFB014680
S315010044A00F4805F02DF968460CF064FB00200D4914
S315010044B00CF080FB30462146FCF78EF82146224659
S315010044C0094805F01DF9224604A808491AF05BFCC3
S315010044D004A9074803F0D6F930460DF5866D70BD7F
S315010044E02FAC0201494400010E7C0201367C020117
S315010044F07D680201034B1A681AB95A68511C596042
S31501004500107070470C3F03010649002311F8012B77
S315010045100AB11344FAE7C3F38110184400F03F00CF
S31501004520704700BF293F030138B5094B5D6B1C4637
S31501004530002D05DD94F83800013D05F0BDF8F7E7DB
S31501004540044C14F8010F10B105F0B6F8F9E738BDBF
S315010045500C3F0301273F03012DE9F04E0026DFF84A
S315010045602C91ADF5507D4FF0FF3435460290CB4688
S315010045700DF59C7A574605F085F8D9F80010C2B2B8
S3150100458021B11046039205F097F8039A032A6FD0DA
S3150100459002DC002A6CD003E00A2A12D00D2A10D0C0
S315010045A00AF8012BD8F858205168344A914203D1B0
S315010045B0CFAB9A45DFD104E005F0CAF80028F7D061
S315010045C056E0C7EB0A030022002B8AF800204FDBD6
S315010045D0384604A905AA0EAB0AF0F7F8002847DB0E
S315010045E00138082835D8DFE800F0050505343434EC
S315010045F018181800029B0EA9059F049A1F443846F5
S3150100460019F046FE049BBC4203F1FF3328BF3C462A
S315010046101F44BD4238BF3D461BE06E1C42F210707E
S31501004620361B19F0E3FE2A46214633460096144806
S3150100463005F066F820463146FBF7CEFF11493246B2
S3150100464006A81AF0A0FB104806A903F01BF9059865
S3150100465010E0DBF80030002B8AD1013664213046A8
S315010046601EF0E0FE002983D12E2005F025F87FE714
S315010046704FF0FF300DF5507DBDE8F08E85960001B7
S31501004680397C0201796802017D680201A81F0301D4
S3150100469038B515461C481C4603F03CFA1B4920B1A7
S315010046A00378312B01D1012300E00023022D0B6099
S315010046B006D16068002110221AF0EBFA044600E0E8
S315010046C00024134805F01CF82046FFF745FF642433
S315010046D0054604F0E4FF08B104F0D4FF4FF47A7004
S315010046E019F084FE013CF4D16B1C04D1094805F094
S315010046F007F8012038BD2946074805F001F8074BA0
S3150100470020461D6038BD00BF9E7C0201A81F030123
S31501004710A97C0201CD7C0201EB7C0201102D030173
S315010047202DE9F04E8CB0C14815461C4603F0F2F94E
S3150100473028B1002110221AF053FA074601E04FF47E
S315010047400047D8F80830012D009326DD6068002166
S3150100475010221AF045FA032D07461ED1A068002142
S315010047600A221AF03DFA8146B8B1009B984216D04A
S315010047704946AF4804F0C4FF4CF2503019F036FEFA
S31501004780C8F8089011F0A1F94CF2503019F02EFE3C
S3150100479004F078FF0D28FBD101E0DDF800902068D8
S315010047A0A44919F081FC044640B939464A46A24853
S315010047B004F0A6FF3846FFF752FE13E24A46394691
S315010047C09E48002404F09CFF9D499E4B4FF0FF3A02
S315010047D08F60CB639C4B4C6381F838400B640D238F
S315010047E00C6181F84430232381F84530FFF710FE30
S315010047F0FFF716FE8B460D469449CBF848100291F9
S3150100480004F040FF012803D00328F9D10025BDE1BA
S3150100481004F038FF10F0E00F064600F0A38004F024
S3150100482031FF10F0E00F00F09D80C3B20193A3F1B8
S315010048302004E4B2544502D1FFF7FCFD01E0FFF785
S31501004840EFFD04F01FFF10F0E00F00F08A80019BDE
S31501004850F2B25FFA80FA1344203AD2B21E46931E90
S3150100486056440193002A46D104F00CFF10F0E00FE4
S3150100487077D0C0B2321820380192C6B204F002FFD6
S31501004880019A10F0E00F6CD0C0B25F2102442038CB
S315010048900392C0B201FB0603019304F0F3FE039AEF
S315010048A010F0E00FC6B25CD0C2F38111114401F0E1
S315010048B03F0120318E4254D116441CE004F0E2FE41
S315010048C0024612F0E00FC0B24BD0019BBAF1440F81
S315010048D0064403F1FF33019322D1DBF81020AAB17C
S315010048E000F060012A6C402909D100F0BF00904711
S315010048F00022CBF81020019B012BDFDC1EE000F02B
S315010049007F013F2908BF40F04000F0E795F84520B8
S31501004910824202D101222A61EDE72A6C9047EAE739
S31501004920BAF1530FE7D1DBF84820494B511CCBF8BC
S3150100493048109942107028BFAA64DCE704F0A2FE71
S3150100494010F0E00F0DD0C6F38112C0B2164406F086
S315010049503F062036B04204D104F094FEC0B20D28C1
S3150100496024D0A246FFF766FD002601218BF82060C0
S315010049708BF81C1023218BF81D1004F120018BF8F4
S315010049801E104E218BF81F10FFF7BEFD9BF8441039
S315010049908BF822608BF8211020308BF82000FFF76E
S315010049A0C3FD21465446A2460C4625E7BAF1530FEC
S315010049B004F1200E40F0C68000222649CBF83420AF
S315010049C08BF8382023228BF84520DBF84820029B00
S315010049D08A428BF8440004BF02F1FF32AA64DBF875
S315010049E04820D21A002A78DD012A4FF07E0185F887
S315010049F0201074D0022A4FF0210185F8211070D0C1
S31501004A0095F84E10032AA1F12001C9B269634FF04E
S31501004A10200185F8221066D095F84F1001F060004C
S31501004A20402819D101F0BF011CE000BF305E020130
S31501004A30097D02013B7D0201417D0201807D02016A
S31501004A400C3F030111440001F5440001583F0301E5
S31501004A506C3F03016B3F030101F07F003F2808BF54
S31501004A6041F04001042A8BF838104FF040018BF8D1
S31501004A7023103AD095F85010052AA1F1200185F8A6
S31501004A8044104FF02D0185F8241030D095F85110BF
S31501004A90062A85F845104FF0230185F8251028D000
S31501004AA0072A4FF04E00A2F1080185F8260022D010
S31501004AB0312285F8272001B3012985F828001ED067
S31501004AC02222102685F82920202285F82A207E22F6
S31501004AD085F82B2085F82C2012E0032610E0042609
S31501004AE00EE005260CE006260AE0072608E0082661
S31501004AF006E0092604E00A2602E00B2600E00C2661
S31501004B0001228BF81C2006F120028BF81D20592268
S31501004B108BF81F20721C8BF81EE05A444FF0000AD6
S31501004B2001925E4482F81CA0FFF7EEFC019A203048
S31501004B3010779BF8442086F81FA0B277FFF7F4FCA4
S31501004B40214630E701228BF81EE08BF81C20232238
S31501004B508BF81D2059228BF81F2000228BF820206C
S31501004B600192FFF7D1FC9BF84410019A2B4E8BF86A
S31501004B7021108BF8222020308BF82000FFF7D4FC7F
S31501004B80BAF1420FDCD17368B5685D1B642404F089
S31501004B9086FD08B104F076FD4FF47A7019F026FC13
S31501004BA0013CF4D129463846FBF716FD29462A462B
S31501004BB01B4804F0A5FD2A461A4904A81AF0E3F891
S31501004BC0194804A9194D02F05DFE7B1C05D1184850
S31501004BD02C6004F095FD012404E01648394604F0E2
S31501004BE08FFD2F60009B994514D01946124804F099
S31501004BF087FD4CF2503019F0F9FB009AC8F80820ED
S31501004C0010F063FF4CF2503019F0F0FB04F03AFD5E
S31501004C101B28FBD120460CB0BDE8F08E0C3F0301EA
S31501004C200E7C0201367C02017D680201102D030112
S31501004C30BF7D0201EB7C0201E47D020173B50E46E4
S31501004C40144601A9002205461AF023F8019BAB423E
S31501004C500246306002D14FF0FF3013E019782D295A
S31501004C600AD1581C01905B7833B100210A461AF02B
S31501004C7010F82060002005E0019B1B78002BEAD18B
S31501004C801846226002B070BD012A2DE9F04E8A460F
S31501004C9096B091461F4602F1FF3540F303815B68EA
S31501004CA0834C1B7802932368089363680993A3686E
S31501004CB00C93E3680D9323690A9363690B93238B22
S31501004CC0039309F0EBFB1AF0010F1CBF237F02933C
S31501004CD00646029B722B0ED0772B3CD1012D62DD4D
S31501004CE057F8250000211022A9F1020919F078FFD1
S31501004CF04D4683B20393012D4FDD57F825B02E2182
S31501004D0005F1FF39584619F003FA8246B0B1CBEBEB
S31501004D10000559460EA82A4619F096F916AB1D4408
S31501004D200EA80CA90DAA002305F8203CFFF786FF63
S31501004D30002840F0B7800AF1010B03E04FF0FF3382
S31501004D400D930C9358460AA90BAAFFF777FF002883
S31501004D5040F0A8804D46012D1FDDAB1E013D012B04
S31501004D6000F2A080022DB86807D109F08AFA06463A
S31501004D70002800F09780F86808E009F095FB20B15B
S31501004D80436B06680993089307E0B86808A909AA5E
S31501004D90FFF754FF002840F08580029B6C2B02D15F
S31501004DA009F01EFB7CE006F10807384609F04AFBCC
S31501004DB0029B089D722B099B04930C9B05930D9BEB
S31501004DC0069324D0029B772B59D10A9BDDF82CB090
S31501004DD00793049B9D4252DCDDF81490069B99458E
S31501004DE013DCDDF81CA0DA450CDC039B30462946B2
S31501004DF04A4600935346376BB84700283FD10AF11C
S31501004E00010AF0E709F10109E8E70135E1E70A9B43
S31501004E1039462848DDF82CB0079304F071FC049B51
S31501004E209D422CDC2448294604F06AFCDDF81490E6
S31501004E30069B994521DCDDF81CA0DA451ADCF76AE8
S31501004E40304629464A465346B847071E03DA1B48E9
S31501004E5004F056FC13E0B9F1000F03DB184849468C
S31501004E6004F04EFC51461748BAB20AF1010A04F0A1
S31501004E7047FCE2E709F10109DAE70135CFE79DF8D9
S31501004E8008302377089B2360099B63600C9BA36012
S31501004E900D9BE3600A9B23610B9B6361039BA361EB
S31501004EA0002001E04FF0FF3016B0BDE8F08E00BFE4
S31501004EB06C3F0301417F0201567F02010FF402019B
S31501004EC06A7F02016E7F0201022A2DE9F7469246A8
S31501004ED01D4602DC4FF0FF304BE05868264919F0B9
S31501004EE0E3F820B104350AF1FF3A002406E0AAF1FD
S31501004EF0020A0835BAF1020FECDD01240021102265
S31501004F00286819F06DFE1D4B002110221F68074409
S31501004F10686819F065FE4FF480633946064600203D
S31501004F20324618F001F881469CB9721E144839467A
S31501004F303A444B4604F0E4FBBAF1020F01D10020DA
S31501004F4017E0A8682146102219F04AFEC0F8009021
S31501004F50F5E7A8680021102219F042FE4845EED077
S31501004F60721E0090394607483A444B4604F0C8FB86
S31501004F70012003B0BDE8F086C38002018C3F030126
S31501004F80C6800201EB800201012A10B5064C05DD3F
S31501004F9058680021102219F023FE20602168034879
S31501004FA004F0AEFB002010BD8C3F030125810201F8
S31501004FB02DE9F0421D46D31E9146012B2ED82868B5
S31501004FC0042104F07DFA061E2CDD002110226868FA
S31501004FD019F006FE154B002110221C680444A8682E
S31501004FE019F0FEFDB9F1040F074605D1E868002165
S31501004FF0102219F0F5FD05E0012003E0042E05D18C
S315010050002760344410F1FF30F8D204E0022E0CBFC1
S3150100501027802770F5E70020BDE8F0824FF0FF30CA
S31501005020BDE8F0820120BDE8F08200BF8C3F03019C
S31501005030022A70B51E4637DD1868042104F040FACD
S31501005040051E34DB00211022706819F0C9FD00210C
S3150100505010220446B06819F0C3FD012809D1042DB8
S3150100506001D12368FDE7022D01D12388FDE72378CD
S31501005070FDE7042D07D12246034613F1FF33FAD388
S3150100508011680432F9E7022D07D12246034613F1CE
S31501005090FF33FAD311880232F9E7204423468342CB
S315010050A0FCD01A780133FAE74FF0FF3070BD0120CA
S315010050B070BD2DE9FF4E9346204DBBF1010F204AED
S315010050C099466C68AE68D2F800A003922EDD11F005
S315010050D0010717D11868042104F0F2F9061E28DB2E
S315010050E0D9F804003946102219F07AFD2C68BBF173
S315010050F0020F044406D0D9F808003946102219F0E7
S315010051006FFD8246314610201EF042F82146534675
S315010051103246009020460AFB064417F0A5FF039B82
S31501005120AE600020C3F800A06C6003E04FF0FF30D2
S3150100513000E0012004B0BDE8F08E00BF8C3F030102
S31501005140AC1F0301042AF8B51D4637D1186811466C
S3150100515004F0B6F9071E34DB00211022686819F045
S315010051603FFD194C0021102226680644A86819F053
S3150100517037FD2468002110220444E86819F030FD47
S3150100518010B1451E361B0DE0104804F0A5FA18E0D3
S31501005190042F0AD133592360ABB23C440BB913F047
S315010051A003FE013D6B1CF3D106E0022F0BBF335BFF
S315010051B0335D23802370EFE70020F8BD4FF0FF3009
S315010051C0F8BD0120F8BD00BF8C3F03013C810201FF
S315010051D0042A2DE9F046994687B058D11868114638
S315010051E004F06EF9051E55DB042D05D02B4B2C4E14
S315010051F0022D18BF1E4600E02A4ED9F804000021F0
S315010052001022294C19F0ECFC0021102227680744D2
S31501005210D9F8080019F0E4FC24680021102204449E
S31501005220D9F80C0019F0DCFC4FF000093F1B82464F
S31501005230D14507EB040222D0042D02D1116823685F
S3150100524005E0022D07BF11882388395D237899422D
S315010052500CD08DE8420031460294CA4604932B468F
S3150100526003950124114804F04BFA09E01FFA89F36A
S315010052702C440BB913F098FD09F10109D8E7002474
S315010052800B485146324604F03BFA204603E04FF004
S31501005290FF3000E0012007B0BDE8F0864D81020134
S315010052A052810201568102018C3F03015B81020199
S315010052B08D810201012A2DE9F34E16461D466EDD4A
S315010052C058680021102219F08BFC022E009068D03C
S315010052D0A8680021102219F083FC032E019063D0E7
S315010052E0E8680021102219F07BFC042E044606D042
S315010052F028690021102219F073FC814601E04FF064
S31501005300000901260025B24604F022FA20B10A203E
S3150100531004F0D2F901204AE0B9F1000F0BD0CA45D9
S3150100532009DD24480AF1FF312A4604F0E9F9281C6F
S3150100533018BF01203BE020482146204AA34604F03D
S31501005340DFF9009F019B9F4205D213F02DFD47F81F
S3150100535004BBB344F6E71A48A34604F0BDF9009F1F
S31501005360019B9F4211D213F01FFD3A685A4509D09D
S31501005370144839465B46013504F0C2F904F0E8F9F0
S315010053800028C4D1B3440437EAE7002C0AF1010A24
S31501005390B8BF6442C6F10006A8BFE443B4E70023E0
S315010053A000934FF0007301930024A146A9E702B0D0
S315010053B0BDE8F08EAF810201D881020100820201AF
S315010053C0018202010C820201022A2DE9F7460746F3
S315010053D09A4649D12D4E11F00109F46835690DD16E
S315010053E01868042104F06CF8051E40DBDAF80400A5
S315010053F04946102219F0F4FB346804442448214636
S3150100540004F07EF9042D02D12248216805E0022D1F
S3150100541007BF214821882148217804F071F92048E5
S3150100542008F00FFE48B30128DFF8789003D199F808
S3150100543000302D2B1DD01B4801A9102219F0D0FBDD
S31501005440019BB3EB09030BD0042D01D1206003E0CE
S31501005450022D0CBF2080207007B12C44002BCDD12A
S31501005460F460002035610DE04FF0FF300AE00120C5
S3150100547008E0002FC2D06B4202E0002FBED02B46BF
S315010054801C44BBE703B0BDE8F08600BF8C3F0301B7
S315010054909E7A02013E820201448202015D7A020184
S315010054A0D47A0201705C030101208DE700208BE7AD
S315010054B037B50D46144601A9102219F091FBC3B266
S315010054C001982B7002782D2A07D101300021102274
S315010054D0019019F085FB207000E0237003B030BD08
S315010054E0012A2DE9F04E164696B01D4602DC4FF014
S315010054F0FF3047E29C4811F0010403788DF84830EB
S3150100550043788DF8493043688DF8423083688DF8C9
S315010055104330C3688DF8443003698DF845304369DB
S31501005520ADF84A3027D1686803788DF8483018F00D
S31501005530E7FD012891BF8DF849406B685B788DF8CE
S315010055404930022E17D0A8680DF142010DF1430230
